{
  "fileName": "AaveRestake.sol",
  "contractName": "AaveRestake",
  "source": "//SPDX-License-Identifier: MIT\n\n   /* (shares should eventually become ERC20)\n    ---PLAN---\n    1. Map the addresses to their share of the pool.\n    2. Every time someone adds AAVE to the pool, mint their share.\n    3. Every time someone unstakes and withdraws AAVE from the pool, burn their share.\n    4. Keep the shares constant, growing in value with stkAAVE rewards (do not make restaking aave mint new shares)\n    \n    ---VARIABLES---\n    1. Mapping address to shares\n    2. totalstkAAVE = Pool's entire staked aave amount\n    3. rewardsToClaim = Pool's accumulated AAVE rewards\n    4. totalShares = Pool's total amount of shares\n        New ones are minted when AAVE is deposited\n        Existing ones are burned when AAVE is withdrawn\n    \n    ---FUNCTIONS---\n    1. Deposit AAVE into the pool --public\n        a. Make sure AAVE is approved V\n        b. Transfer and stake new AAVE V\n        c. Mint new shares equal to: (depositAmount/totalstkAAVE) * totalShares\n            This calculates the new share of the pool after the AAVE is deposited, then mints the appropriate shares.\n            For instance:\n                totalShares = 9\n                totalstkAAVE = 90\n                depositAmount = 10\n                depositAmount/totalstkAAVE = 10/(90) = 0.1111\n                (depositAmount/totalstkAAVE) * totalShares = 0.1111 * 9 = 1\n                totalShares = 9 + 1 = 10\n                totalstkAave = 100\n                    Note: This just happens to map perfectly, if there was 6251 stkAave and 10 shares, this logic still works.\n            This should also update every appropriate value\n\n    2. Withdraw shares --public\n        a. Start unstaking cooldown\n        b. Unstake when possible\n        c. Return AAVE in accordance to mapped pool share\n        d. Burn mapped pool share\n            Should update state \n\n    3. Restake AAVE rewards into SM --public\n        a. Withdraw AAVE rewards\n        b. Approve AAVE\n        b. Stake AAVE \n    \n    4. Check shares --public\n        returns the amount of shares owned by the given address parameter\n    5. Check stkAAVE balance --public\n        returns the amount of stkAAVE owned by the given address parameter\n\n    */\npragma solidity 0.6.12;\n\nimport \"./interfaces/IStakedAave.sol\";\nimport \"@openzeppelin/upgrades/contracts/Initializable.sol\";\nimport \"@openzeppelin/contracts-ethereum-package/contracts/token/ERC20/SafeERC20.sol\";\nimport \"@openzeppelin/contracts-ethereum-package/contracts/math/SafeMath.sol\";\n\ncontract AaveRestake is Initializable {\n    using SafeERC20 for IERC20;\n    using SafeMath for uint256;\n\n    address private stkAaveAddress;             //stkAAVE address\n    IStakedAave stkAaveStaker;                  //stkAAVE staking interface\n    IERC20 stkAave;                             //stkAAVE ERC20 interface\n    address private aaveAddress;                //AAVE address\n    IERC20 aave;                                //AAVE interface\n    uint256 totalStkAave;                       //Total pool stkAAVE\n    uint256 poolRewards;                        //Total pool rewards to claim\n    mapping(address => uint256) public shares;  //Mapping addresses to pool shares\n    uint256 totalShares;                        //Total pool shares (KEEP TRACK MANUALLY\n    uint256 maxInt;\n    //Initialize variables and approve stkAave\n    function initialize() public initializer {\n        stkAaveAddress = address(0xf2fbf9A6710AfDa1c4AaB2E922DE9D69E0C97fd2);   //Kovan proxy\n        stkAaveStaker = IStakedAave(stkAaveAddress);\n        stkAave = IERC20(stkAaveAddress);\n\n        aaveAddress = address(0x507F9D08B634783b808d7C70E8dE3146D69Ac8d7);      //Kovan proxy\n        aave = IERC20(aaveAddress);\n\n        totalShares = 0;\n        totalStkAave = 0;\n        poolRewards = 0;\n        maxInt = 2 ** 256 - 1;\n\n        aave.safeApprove(address(stkAave), maxInt);\n    }\n\n    function updateStkAave() internal {\n        totalStkAave = stkAave.balanceOf(address(this));\n    }\n    //CAN INDEED DO FRACTIONS BY DIVIDING, BUT NOT ASIGN A FRACTION TO A UINT\n    //Deposit function (1e18 share begins as 1 AAVE)\n    function deposit(uint256 amount) external {\n        //First, fetch the pool's total staked AAVE\n        //Then transfer in the caller's AAVE and stake it\n        updateStkAave();\n        require(aave.allowance(msg.sender, address(this)) >= amount, \"Insufficient allowance.\");\n        aave.safeTransferFrom(msg.sender, address(this), amount);\n        \n        //require(aave.allowance(address(this), address(stkAave)) >= amount, \"Error setting Staked Aave allowance.\");\n        stkAaveStaker.stake(address(this), amount);\n\n        //Initialize the user's shares to mint and calculate the appropriate amount\n        /*uint256 sharesToMint = 0;\n        if (totalStkAave > 0 && totalShares > 0) {\n            sharesToMint = amount.div(totalStkAave).mul(totalShares);\n        } else if (totalStkAave == 0 && totalShares == 0) {\n            sharesToMint = amount;\n        }\n        require(sharesToMint >= 0, \"No shares to mint.\");\n        \n        //Assign shares to depositor and update state variables\n        shares[msg.sender] = sharesToMint;\n        totalShares.add(sharesToMint);\n        updateStkAave();*/\n    }\n\n    //Check total pool pending AAVE rewards\n    function checkRewards() external view returns (uint256) {\n        return stkAaveStaker.getTotalRewardsBalance(address(this));\n    }\n\n    //Claims and re-invests AAVE rewards, then update the pool's total stkAAVE\n    function claimAndStake() external {\n        stkAaveStaker.claimRewards(address(this), uint(-1));\n        uint256 aaveBalance = aave.balanceOf(address(this));\n\n        require(aaveBalance > 0, \"Cannot stake 0 tokens.\");\n        stkAaveStaker.stake(address(this), aaveBalance);\n\n        updateStkAave();\n    }\n\n    //Withdraws a set amount of shares to transfer stkAAVE back to the user\n    //First, fetch the user's shares\n    //Next, calculate the amount of stkAAVE to transfer to the user\n    //Lastly, transfer them back. Can't use safeTransfer, so manually checking success\n    function withdrawShares(uint256 shareCount) external {\n        updateStkAave(); //Security\n        uint256 userShareCount = shares[msg.sender];\n        require(userShareCount > 0, \"No pool ownership.\");\n        require(shareCount <= userShareCount, \"Cannot withdraw more than what is owned.\");\n        uint256 stkAaveToWithdraw = shareCount.div(totalShares).mul(totalStkAave);\n        bool success = stkAave.transfer(msg.sender, stkAaveToWithdraw);\n        if (success) {\n            totalShares.sub(shareCount);\n            shares[msg.sender].sub(shareCount);\n            updateStkAave();\n        } else {\n            revert(\"Transfer failed.\");\n        }\n    }\n\n    //Returns the user's stkAAVE balance in the pool\n    function stkAaveBalanceOf(address query) external view returns (uint256) {\n        uint256 userStkAaveBalance = shares[query].div(totalShares).mul(totalStkAave);\n        return userStkAaveBalance;\n    }\n\n    //Returns the pool's total shared balance\n    function totalShareBalance() external view returns (uint256) {\n        return totalShares;\n    }\n\n    function testAdd() external view returns (uint256) {\n        //return stkAave.balanceOf(msg.sender);\n        return aave.allowance(address(this), address(stkAave));\n    }\n}",
  "sourcePath": "contracts/AaveRestake.sol",
  "abi": [
    {
      "inputs": [],
      "name": "checkRewards",
      "outputs": [
        {
          "internalType": "uint256",
          "name": "",
          "type": "uint256"
        }
      ],
      "stateMutability": "view",
      "type": "function"
    },
    {
      "inputs": [],
      "name": "claimAndStake",
      "outputs": [],
      "stateMutability": "nonpayable",
      "type": "function"
    },
    {
      "inputs": [
        {
          "internalType": "uint256",
          "name": "amount",
          "type": "uint256"
        }
      ],
      "name": "deposit",
      "outputs": [],
      "stateMutability": "nonpayable",
      "type": "function"
    },
    {
      "inputs": [],
      "name": "initialize",
      "outputs": [],
      "stateMutability": "nonpayable",
      "type": "function"
    },
    {
      "inputs": [
        {
          "internalType": "address",
          "name": "",
          "type": "address"
        }
      ],
      "name": "shares",
      "outputs": [
        {
          "internalType": "uint256",
          "name": "",
          "type": "uint256"
        }
      ],
      "stateMutability": "view",
      "type": "function"
    },
    {
      "inputs": [
        {
          "internalType": "address",
          "name": "query",
          "type": "address"
        }
      ],
      "name": "stkAaveBalanceOf",
      "outputs": [
        {
          "internalType": "uint256",
          "name": "",
          "type": "uint256"
        }
      ],
      "stateMutability": "view",
      "type": "function"
    },
    {
      "inputs": [],
      "name": "testAdd",
      "outputs": [
        {
          "internalType": "uint256",
          "name": "",
          "type": "uint256"
        }
      ],
      "stateMutability": "view",
      "type": "function"
    },
    {
      "inputs": [],
      "name": "totalShareBalance",
      "outputs": [
        {
          "internalType": "uint256",
          "name": "",
          "type": "uint256"
        }
      ],
      "stateMutability": "view",
      "type": "function"
    },
    {
      "inputs": [
        {
          "internalType": "uint256",
          "name": "shareCount",
          "type": "uint256"
        }
      ],
      "name": "withdrawShares",
      "outputs": [],
      "stateMutability": "nonpayable",
      "type": "function"
    }
  ],
  "bytecode": "0x608060405234801561001057600080fd5b506119d2806100206000396000f3fe608060405234801561001057600080fd5b50600436106100935760003560e01c80638218856511610066578063821885651461010c578063ae40f72f14610164578063b6b55f2514610182578063cb1a4fc0146101b0578063ce7c2ac2146101ba57610093565b806319810f3c146100985780632aeaa291146100c657806355f0d4a9146100e45780638129fc1c14610102575b600080fd5b6100c4600480360360208110156100ae57600080fd5b8101908080359060200190929190505050610212565b005b6100ce61051c565b6040518082815260200191505060405180910390f35b6100ec6105e7565b6040518082815260200191505060405180910390f35b61010a6105f1565b005b61014e6004803603602081101561012257600080fd5b81019080803573ffffffffffffffffffffffffffffffffffffffff169060200190929190505050610972565b6040518082815260200191505060405180910390f35b61016c6109e8565b6040518082815260200191505060405180910390f35b6101ae6004803603602081101561019857600080fd5b8101908080359060200190929190505050610af3565b005b6101b8610d4f565b005b6101fc600480360360208110156101d057600080fd5b81019080803573ffffffffffffffffffffffffffffffffffffffff16906020019092919050505061100e565b6040518082815260200191505060405180910390f35b61021a611026565b6000603a60003373ffffffffffffffffffffffffffffffffffffffff1673ffffffffffffffffffffffffffffffffffffffff168152602001908152602001600020549050600081116102d4576040517f08c379a00000000000000000000000000000000000000000000000000000000081526004018080602001828103825260128152602001807f4e6f20706f6f6c206f776e6572736869702e000000000000000000000000000081525060200191505060405180910390fd5b8082111561032d576040517f08c379a00000000000000000000000000000000000000000000000000000000081526004018080602001828103825260288152602001806119756028913960400191505060405180910390fd5b600061035860385461034a603b54866110f290919063ffffffff16565b61113c90919063ffffffff16565b90506000603560009054906101000a900473ffffffffffffffffffffffffffffffffffffffff1673ffffffffffffffffffffffffffffffffffffffff1663a9059cbb33846040518363ffffffff1660e01b8152600401808373ffffffffffffffffffffffffffffffffffffffff16815260200182815260200192505050602060405180830381600087803b1580156103ef57600080fd5b505af1158015610403573d6000803e3d6000fd5b505050506040513d602081101561041957600080fd5b8101908080519060200190929190505050905080156104a85761044784603b546111c290919063ffffffff16565b5061049a84603a60003373ffffffffffffffffffffffffffffffffffffffff1673ffffffffffffffffffffffffffffffffffffffff168152602001908152602001600020546111c290919063ffffffff16565b506104a3611026565b610516565b6040517f08c379a00000000000000000000000000000000000000000000000000000000081526004018080602001828103825260108152602001807f5472616e73666572206661696c65642e0000000000000000000000000000000081525060200191505060405180910390fd5b50505050565b6000603460009054906101000a900473ffffffffffffffffffffffffffffffffffffffff1673ffffffffffffffffffffffffffffffffffffffff16638dbefee2306040518263ffffffff1660e01b8152600401808273ffffffffffffffffffffffffffffffffffffffff16815260200191505060206040518083038186803b1580156105a757600080fd5b505afa1580156105bb573d6000803e3d6000fd5b505050506040513d60208110156105d157600080fd5b8101908080519060200190929190505050905090565b6000603b54905090565b600060019054906101000a900460ff1680610610575061060f61120c565b5b80610626575060008054906101000a900460ff16155b61067b576040517f08c379a000000000000000000000000000000000000000000000000000000000815260040180806020018281038252602e8152602001806118e7602e913960400191505060405180910390fd5b60008060019054906101000a900460ff1615905080156106cb576001600060016101000a81548160ff02191690831515021790555060016000806101000a81548160ff0219169083151502179055505b73f2fbf9a6710afda1c4aab2e922de9d69e0c97fd2603360006101000a81548173ffffffffffffffffffffffffffffffffffffffff021916908373ffffffffffffffffffffffffffffffffffffffff160217905550603360009054906101000a900473ffffffffffffffffffffffffffffffffffffffff16603460006101000a81548173ffffffffffffffffffffffffffffffffffffffff021916908373ffffffffffffffffffffffffffffffffffffffff160217905550603360009054906101000a900473ffffffffffffffffffffffffffffffffffffffff16603560006101000a81548173ffffffffffffffffffffffffffffffffffffffff021916908373ffffffffffffffffffffffffffffffffffffffff16021790555073507f9d08b634783b808d7c70e8de3146d69ac8d7603660006101000a81548173ffffffffffffffffffffffffffffffffffffffff021916908373ffffffffffffffffffffffffffffffffffffffff160217905550603660009054906101000a900473ffffffffffffffffffffffffffffffffffffffff16603760006101000a81548173ffffffffffffffffffffffffffffffffffffffff021916908373ffffffffffffffffffffffffffffffffffffffff1602179055506000603b81905550600060388190555060006039819055507fffffffffffffffffffffffffffffffffffffffffffffffffffffffffffffffff603c8190555061094e603560009054906101000a900473ffffffffffffffffffffffffffffffffffffffff16603c54603760009054906101000a900473ffffffffffffffffffffffffffffffffffffffff1673ffffffffffffffffffffffffffffffffffffffff166112239092919063ffffffff16565b801561096f5760008060016101000a81548160ff0219169083151502179055505b50565b6000806109dd6038546109cf603b54603a60008873ffffffffffffffffffffffffffffffffffffffff1673ffffffffffffffffffffffffffffffffffffffff168152602001908152602001600020546110f290919063ffffffff16565b61113c90919063ffffffff16565b905080915050919050565b6000603760009054906101000a900473ffffffffffffffffffffffffffffffffffffffff1673ffffffffffffffffffffffffffffffffffffffff1663dd62ed3e30603560009054906101000a900473ffffffffffffffffffffffffffffffffffffffff166040518363ffffffff1660e01b8152600401808373ffffffffffffffffffffffffffffffffffffffff1681526020018273ffffffffffffffffffffffffffffffffffffffff1681526020019250505060206040518083038186803b158015610ab357600080fd5b505afa158015610ac7573d6000803e3d6000fd5b505050506040513d6020811015610add57600080fd5b8101908080519060200190929190505050905090565b610afb611026565b80603760009054906101000a900473ffffffffffffffffffffffffffffffffffffffff1673ffffffffffffffffffffffffffffffffffffffff1663dd62ed3e33306040518363ffffffff1660e01b8152600401808373ffffffffffffffffffffffffffffffffffffffff1681526020018273ffffffffffffffffffffffffffffffffffffffff1681526020019250505060206040518083038186803b158015610ba357600080fd5b505afa158015610bb7573d6000803e3d6000fd5b505050506040513d6020811015610bcd57600080fd5b81019080805190602001909291905050501015610c52576040517f08c379a00000000000000000000000000000000000000000000000000000000081526004018080602001828103825260178152602001807f496e73756666696369656e7420616c6c6f77616e63652e00000000000000000081525060200191505060405180910390fd5b610ca1333083603760009054906101000a900473ffffffffffffffffffffffffffffffffffffffff1673ffffffffffffffffffffffffffffffffffffffff166113e8909392919063ffffffff16565b603460009054906101000a900473ffffffffffffffffffffffffffffffffffffffff1673ffffffffffffffffffffffffffffffffffffffff1663adc9772e30836040518363ffffffff1660e01b8152600401808373ffffffffffffffffffffffffffffffffffffffff16815260200182815260200192505050600060405180830381600087803b158015610d3457600080fd5b505af1158015610d48573d6000803e3d6000fd5b5050505050565b603460009054906101000a900473ffffffffffffffffffffffffffffffffffffffff1673ffffffffffffffffffffffffffffffffffffffff16639a99b4f0307fffffffffffffffffffffffffffffffffffffffffffffffffffffffffffffffff6040518363ffffffff1660e01b8152600401808373ffffffffffffffffffffffffffffffffffffffff16815260200182815260200192505050600060405180830381600087803b158015610e0257600080fd5b505af1158015610e16573d6000803e3d6000fd5b505050506000603760009054906101000a900473ffffffffffffffffffffffffffffffffffffffff1673ffffffffffffffffffffffffffffffffffffffff166370a08231306040518263ffffffff1660e01b8152600401808273ffffffffffffffffffffffffffffffffffffffff16815260200191505060206040518083038186803b158015610ea557600080fd5b505afa158015610eb9573d6000803e3d6000fd5b505050506040513d6020811015610ecf57600080fd5b8101908080519060200190929190505050905060008111610f58576040517f08c379a00000000000000000000000000000000000000000000000000000000081526004018080602001828103825260168152602001807f43616e6e6f74207374616b65203020746f6b656e732e0000000000000000000081525060200191505060405180910390fd5b603460009054906101000a900473ffffffffffffffffffffffffffffffffffffffff1673ffffffffffffffffffffffffffffffffffffffff1663adc9772e30836040518363ffffffff1660e01b8152600401808373ffffffffffffffffffffffffffffffffffffffff16815260200182815260200192505050600060405180830381600087803b158015610feb57600080fd5b505af1158015610fff573d6000803e3d6000fd5b5050505061100b611026565b50565b603a6020528060005260406000206000915090505481565b603560009054906101000a900473ffffffffffffffffffffffffffffffffffffffff1673ffffffffffffffffffffffffffffffffffffffff166370a08231306040518263ffffffff1660e01b8152600401808273ffffffffffffffffffffffffffffffffffffffff16815260200191505060206040518083038186803b1580156110af57600080fd5b505afa1580156110c3573d6000803e3d6000fd5b505050506040513d60208110156110d957600080fd5b8101908080519060200190929190505050603881905550565b600061113483836040518060400160405280601a81526020017f536166654d6174683a206469766973696f6e206279207a65726f0000000000008152506114a9565b905092915050565b60008083141561114f57600090506111bc565b600082840290508284828161116057fe5b04146111b7576040517f08c379a00000000000000000000000000000000000000000000000000000000081526004018080602001828103825260218152602001806118c66021913960400191505060405180910390fd5b809150505b92915050565b600061120483836040518060400160405280601e81526020017f536166654d6174683a207375627472616374696f6e206f766572666c6f77000081525061156f565b905092915050565b6000803090506000813b9050600081149250505090565b60008114806112f1575060008373ffffffffffffffffffffffffffffffffffffffff1663dd62ed3e30856040518363ffffffff1660e01b8152600401808373ffffffffffffffffffffffffffffffffffffffff1681526020018273ffffffffffffffffffffffffffffffffffffffff1681526020019250505060206040518083038186803b1580156112b457600080fd5b505afa1580156112c8573d6000803e3d6000fd5b505050506040513d60208110156112de57600080fd5b8101908080519060200190929190505050145b611346576040517f08c379a000000000000000000000000000000000000000000000000000000000815260040180806020018281038252603681526020018061193f6036913960400191505060405180910390fd5b6113e38363095ea7b360e01b8484604051602401808373ffffffffffffffffffffffffffffffffffffffff16815260200182815260200192505050604051602081830303815290604052907bffffffffffffffffffffffffffffffffffffffffffffffffffffffff19166020820180517bffffffffffffffffffffffffffffffffffffffffffffffffffffffff838183161783525050505061162f565b505050565b6114a3846323b872dd60e01b858585604051602401808473ffffffffffffffffffffffffffffffffffffffff1681526020018373ffffffffffffffffffffffffffffffffffffffff1681526020018281526020019350505050604051602081830303815290604052907bffffffffffffffffffffffffffffffffffffffffffffffffffffffff19166020820180517bffffffffffffffffffffffffffffffffffffffffffffffffffffffff838183161783525050505061162f565b50505050565b60008083118290611555576040517f08c379a00000000000000000000000000000000000000000000000000000000081526004018080602001828103825283818151815260200191508051906020019080838360005b8381101561151a5780820151818401526020810190506114ff565b50505050905090810190601f1680156115475780820380516001836020036101000a031916815260200191505b509250505060405180910390fd5b50600083858161156157fe5b049050809150509392505050565b600083831115829061161c576040517f08c379a00000000000000000000000000000000000000000000000000000000081526004018080602001828103825283818151815260200191508051906020019080838360005b838110156115e15780820151818401526020810190506115c6565b50505050905090810190601f16801561160e5780820380516001836020036101000a031916815260200191505b509250505060405180910390fd5b5060008385039050809150509392505050565b61164e8273ffffffffffffffffffffffffffffffffffffffff1661187a565b6116c0576040517f08c379a000000000000000000000000000000000000000000000000000000000815260040180806020018281038252601f8152602001807f5361666545524332303a2063616c6c20746f206e6f6e2d636f6e74726163740081525060200191505060405180910390fd5b600060608373ffffffffffffffffffffffffffffffffffffffff16836040518082805190602001908083835b6020831061170f57805182526020820191506020810190506020830392506116ec565b6001836020036101000a0380198251168184511680821785525050505050509050019150506000604051808303816000865af19150503d8060008114611771576040519150601f19603f3d011682016040523d82523d6000602084013e611776565b606091505b5091509150816117ee576040517f08c379a00000000000000000000000000000000000000000000000000000000081526004018080602001828103825260208152602001807f5361666545524332303a206c6f772d6c6576656c2063616c6c206661696c656481525060200191505060405180910390fd5b6000815111156118745780806020019051602081101561180d57600080fd5b8101908080519060200190929190505050611873576040517f08c379a000000000000000000000000000000000000000000000000000000000815260040180806020018281038252602a815260200180611915602a913960400191505060405180910390fd5b5b50505050565b60008060007fc5d2460186f7233c927e7db2dcc703c0e500b653ca82273b7bfad8045d85a47060001b9050833f91508082141580156118bc57506000801b8214155b9250505091905056fe536166654d6174683a206d756c7469706c69636174696f6e206f766572666c6f77436f6e747261637420696e7374616e63652068617320616c7265616479206265656e20696e697469616c697a65645361666545524332303a204552433230206f7065726174696f6e20646964206e6f7420737563636565645361666545524332303a20617070726f76652066726f6d206e6f6e2d7a65726f20746f206e6f6e2d7a65726f20616c6c6f77616e636543616e6e6f74207769746864726177206d6f7265207468616e2077686174206973206f776e65642ea2646970667358221220f832a27ce6d6d9a46c4d0eb18430765f5ed0b9a15c5ccb9a115850b7fb5ba86964736f6c634300060c0033",
  "compiler": {
    "name": "solc",
    "version": "0.6.12+commit.27d51765.Emscripten.clang",
    "optimizer": {
      "enabled": false,
      "runs": 200
    },
    "evmVersion": "petersburg"
  }
}